:020000040000FA
:10000000831603308500061086140615F830870025
:10001000FF30880089309F00831286309F000610D1
:10002000A601A701BB200330A000FF30A100ED20F6
:100030001F15861C1E208618612019280619AA2063
:1000400081309F00ED201F151F1924281E08A300D2
:1000500083161E088312A20021082202031DA42079
:10006000A3183A20A20803194E20FF30A100861CD5
:100070001E2808000610A3011030A600BB20E720B0
:100080000310260DA600BB20E720260DA600BB20EE
:10009000E720260DA600BB20E72008000610A201DD
:1000A0000130A600BB20E720260DA600BB20E720DC
:1000B000260DA600BB20E720260DA600BB20E720CA
:1000C00008000619AA2089309F00ED201F151F196E
:1000D00067281E08A50083161E088312A4002108A5
:1000E0002402031DA420A5187D20A4080319902034
:1000F000FF30A1008618612808000610A501013014
:10010000A700BB20E720270DA700BB20E720270D75
:10011000A700BB20E720270DA700BB20E720080091
:100120000610A4011030A700BB20E7200310270D04
:10013000A700BB20E720270DA700BB20E720270D45
:10014000A700BB20E72008000030A600A700BB20C6
:1001500006140800FF30A600A700BB2006140921E2
:100160000030A600A700BB2006100921A00BAA287A
:100170000330A000080007112608A9002708AA00DC
:100180001030A8000310A90DAA0D031C07100318B6
:100190000714871400008710A80BC3280715080050
:1001A0000000000000000000000000000800000047
:1001B000A430E32800004030E3281F30E32800008B
:1001C0000E30E3280530AB00AB0BE4280800C83044
:1001D000F6286430F6283230F6281430F6280A3033
:1001E000F6280530F6280230F6280130AC00F93048
:1001F000AB000000AB0BF928AC0BF7280800C830A7
:100200000A2964300A2932300A2914300A290A30AE
:100210000A290530AD006430AC00F930AB000000B5
:0E022000AB0B0F29AC0B0D29AD0B0B29080001
:02400E00313F40
:00000001FF
