:020000040000FA
:1000000083168113013085000430860087010E308D
:100010009F00831281309F00870106100330A000EB
:100020007320061D4A201F1573201F1914281E084F
:10003000A10064302102031C23282108963C031CE4
:10004000252847201128272011283720112806109D
:100050008701013087006D20023087006D20043059
:1000600087006D20083087006D208701080006108A
:100070008701103087006D20203087006D204030D0
:1000800087006D20803087006D2087010800870180
:1000900006140800FF30870006148F208701061021
:1000A0008F20A00B4A280330A000080000000000A9
:1000B000000000000000000008000000A4306928D3
:1000C0000000403069281F30692800000E30692880
:1000D0000530A200A20B6A280800C8307C286430D2
:1000E0007C2832307C2814307C280A307C2805306B
:1000F0007C2802307C280130A300F930A2000000E7
:10010000A20B7F28A30B7D280800C83090286430FC
:10011000902832309028143090280A3090280530EA
:10012000A4006430A300F930A2000000A20B9528BF
:0A013000A30B9328A40B91280800EC
:02400E00313F40
:00000001FF
