:020000040000FA
:100000008316033085000610861400308700003008
:10001000880089309F00831286309F000610870178
:1000200088010330A000FF30A100C6201F15861CE8
:100030001C208618572017280619982081309F0009
:10004000C6201F151F1922281E08A30083161E088C
:100050008312A20021082202031D9220A318382037
:10006000A20803194820FF30A100861C1C280800A4
:100070000610A30110308700C0200310070D870071
:10008000C020070D8700C020070D8700C020080092
:100090000610A20101308700C020070D8700C02094
:1000A000070D8700C020070D8700C0200800061933
:1000B000982089309F00C6201F151F195D281E0833
:1000C000A50083161E088312A40021082402031D24
:1000D0009220A5187320A40803198220FF30A100E4
:1000E0008618572808000610A50101308800C02096
:1000F000080D8800C020080D8800C020080D880069
:10010000C02008000610A40110308800C020031091
:10011000080D8800C020080D8800C020080D880048
:10012000C020080000308700003088000614080056
:10013000FF308700FF3088000614E220003087007F
:10014000003088000610E220A00B98280330A000A1
:10015000080000000000000000000000000008008F
:100160000000A430BC2800004030BC281F30BC2850
:1001700000000E30BC280530A600A60BBD280800E4
:10018000C830CF286430CF283230CF281430CF2861
:100190000A30CF280530CF280230CF280130A70001
:1001A000F930A6000000A60BD228A70BD028080023
:1001B000C830E3286430E3283230E3281430E328E1
:1001C0000A30E3280530A8006430A700F930A60003
:1001D0000000A60BE828A70BE628A80BE4280800D7
:02400E00313F40
:00000001FF
