:020000040000FA
:100000008316033085000610861400308700003008
:10001000880009309F00831281309F00861C1320C6
:10002000861818200E2806191D20861C1328080083
:1000300006191D20861818280800FF308700FF3099
:100040008800061466200030870000308800061003
:10005000A00B1D280330A0000800000000000000D5
:1000600000000000000008000000A430402800004C
:10007000403040281F30402800000E304028053016
:10008000A100A10B41280800C83053286430532830
:1000900032305328143053280A305328053053285F
:1000A000023053280130A200F930A1000000A10B5A
:1000B0005628A20B54280800C830672864306728E7
:1000C00032306728143067280A3067280530A300CB
:1000D0006430A200F930A1000000A10B6C28A20B33
:0800E0006A28A30B6828080040
:02400E00313F40
:00000001FF
