:020000040000FA
:100000008316FF30850009148914091540308600D5
:1000100080309F00831206180F280B286220413081
:100020009F0058201E08A00083161E088312A100FE
:1000300049309F0058201E08A00083161E08831216
:10004000A10051309F0058201E08A00083161E08F2
:100050008312A10059309F0058201E08A00083166B
:100060001E088312A10061309F0058201E08A000C6
:1000700083161E088312A10069309F0058201E08B5
:10008000A00083161E088312A10071309F00582023
:100090001E08A00083161E088312A10079309F005D
:1000A00058201E08A00083161E088312A100080015
:1000B0005D201F151F195A2808000630B000B00B2C
:1000C0005F2808001230B3005030B2005030B10049
:1000D0000000B10B6828B20B6628B30B6428080037
:02400E00313F40
:00000001FF
