:020000040000FA
:1000000001288316FF308500091489140915013071
:100010008600871007110810881008118811003019
:100020009F00FF30920083120C3097009D00121544
:100030007D30AC0006181D281A28C8202220502028
:100040006A201E2841309F004B201E08A000493026
:100050009F004B201E08A10051309F004B201E081E
:10006000A20059309F004B201E08A30061309F0062
:100070004B201E08A40069309F004B201E08A500DD
:1000800071309F004B201E08A60079309F004B2046
:100090001E08A7000800C3201F151F194D280800BF
:1000A000AD012C082002AD0D2C082102AD0D2C084D
:1000B0002202AD0D2C082302AD0D2C082402AD0D3B
:1000C0002C082502AD0D2C082602AD0D2C082702A8
:1000D000AD0D08002D087E3A03198F282D08FC3A33
:1000E000031998282D08F83A031998282D08E03AA2
:1000F0000319A1282D08C03A0319A1282D083F3A59
:100100000319AA282D081F3A0319AA282D08073A0F
:100110000319B3282D08033A0319B328BC2808147F
:10012000881008158811FF309B00FF3095000800EB
:10013000081488100815881164309B00FF30950062
:100140000800081088140815881196309B00FF30AD
:10015000950008000814881008158811FF309B00CE
:100160006430950008000814881008118815FF30C5
:100170009B0096309500080008108810081188111F
:100180009B01950108000630A800A80BC5280800AF
:100190001230AB00FA30AA00FA30A9000000A90B17
:0C01A000CE28AA0BCC28AB0BCA28080004
:02400E00313F40
:00000001FF
