:020000040000FA
:020000000528D1
:08000800090083160730850092
:10001000860106309F008117831286010030A00000
:100020002008003A031925282008013A03192E2830
:100030002008023A031938282008033A03194828EF
:100040002008043A03194F281028043086000518A8
:100050001028851C10280130A000102809308600C7
:10006000851C35280518522810280230A0001028B9
:100070001030860005181028572005181028033066
:10008000A00010280518422857200330A00010288F
:1000900022308600051952280518522810284030B1
:1000A00086004F28860106170430A000102819305A
:1000B000A100C830A200FA30A300A30B5D28A20B58
:0800C0005B28A10B5928080080
:02400E00313F40
:00000001FF
