:020000040000FA
:0400000010EF00F00D
:040008002BEF00F0EA
:100020000F0E926E1F0E936EFF0E946EFF0E956E66
:1000300043EC00F0850ED56E4CEC01F0F28AF29E96
:10004000F28C81B6FED758EC01F081B6FAD781A6C2
:10005000FED7F28EFFD7F2A415D048EC00F069EC81
:1000600000F0B9EC00F0A4EC00F0FEEC00F01CECA9
:1000700001F024C026F025C027F0000ED76E000E38
:10008000D66EF2941100020EC16E3E0EC06E1200CA
:10009000310E46EC01F02A6E290E46EC01F02B6E73
:1000A000210E46EC01F02C6E2D0E46EC01F02D6E6B
:1000B000010E46EC01F02E6E050E46EC01F02F6E9F
:1000C000090E46EC01F0306E0D0E46EC01F0316E7B
:1000D0001200326A336A346A356A0A0E2E02F3500D
:1000E0003226F4503322140E2F02F3503226F450ED
:1000F00033221E0E3002F3503226F4503322280EE3
:100100003102F3503226F45033220A0E2D02F350FE
:100110003426F4503522140E2C02F3503426F450B9
:1001200035221E0E2B02F3503426F4503522280EB1
:100130002A02F3503426F45035223450325C246EB7
:1001400035503358256E1200389025AE07D03880D0
:10015000241E251E010E2426000E252237502402BF
:10016000F3CF39F0F4CF3AF037502502F3503A2666
:1001700012002650245C3C6E275025583D6E389264
:100180003DAE07D038823C1E3D1E010E3C26000EBF
:100190003D223B503C02F3CF3EF0F4CF3FF03B50CA
:1001A0003D02F3503F2612004050416E426A4050DB
:1001B000436E446A38B409D028504126295042225F
:1001C0002850435E2950445A08D02850415E295097
:1001D000425A28504326295044224252D8A441680A
:1001E0004452D8A4436842BE416A44BE436A050EE5
:1001F0008C6E4150BE6E4350BB6E12003850030BE4
:10020000000A0FE03850030B030A0BE03E50395C44
:10021000286E3F503A58296E38B0388438A0389448
:1002200012003E503924286E3F503A20296E38B0D3
:10023000388438A0389412004050416E426A4050D1
:10024000436E446A38B409D02850412629504222CE
:100250002850435E2950445A08D02850415E295006
:10026000425A28504326295044224252D8A4416879
:100270004452D8A4436842BE416A44BE436A050E54
:100280008C6E4150BE6E4350BB6E1200C26EC28275
:10029000C2B2FED7C450120094929494FF0ECB6E5B
:1002A000BE6ABB6A0C0EBD6EBA6E040ECA6E120038
:1002B000640E466EFA0E456E452EFED7462EFAD7D0
:0202C00012002A
:020000040030CA
:04000000C43EDFFE1D
:02000500F99B65
:06000800FFFFFFFFFFFFF8
:00000001FF
